:1000000071C000008FC000008DC000008BC00000D8
:1000100089C0000087C0000085C0000083C00000C8
:1000200081C000007FC000007DC000007BC00000D8
:1000300079C0000077C0000075C0000073C00000E8
:1000400071C000008CC100006DC000006BC00000DA
:1000500069C0000067C0000065C0000063C0000008
:1000600061C0000011C600005DC000005BC0000060
:1000700059C0000057C0000055C0000053C0000028
:1000800051C000004FC000004DC000004BC0000038
:1000900049C0000047C0000045C0000043C0000048
:1000A00041C000003FC000003DC000003BC0000058
:1000B00039C0000037C0000035C0000033C0000068
:1000C00031C000002FC000002DC000002BC0000078
:1000D00029C0000027C0000025C0000023C0000088
:1000E00021C0000011241FBECFEFD1E2DEBFCDBF83
:1000F00000E00CBF12E0A0E0B2E0E2E5F3E100E0D6
:100100000BBF02C007900D92AC30B107D9F72EE0BB
:10011000ACE0B2E001C01D92AE37B207E1F701D505
:100120000C94A7096DCFCF93DF93C5E0D0E0D0D476
:1001300062D5BCD421972097D1F7FAD4DF91CF9123
:1001400004C10F931F938ED583E071D580E090E0BA
:1001500052D505E010E022E030E04AE050E061E0F6
:1001600070E083E990E07AD480E090E044D5EDD06F
:1001700080E090E01F910F910895FFCFFF93FCB7AF
:10018000FF93FFB7F894FF93EF93DF93CF93BF9361
:10019000AF939F938F937F936F935F934F933F930F
:1001A0002F931F930F93FF92EF92DF92CF92BF9204
:1001B000AF929F928F927F926F925F924F923F92F7
:1001C0002F921F920F928DB79EB79093F00B809352
:1001D000EF0BE091F10BF091F20BF395808191819F
:1001E0009EBF8DBF0F901F902F903F904F905F90BC
:1001F0006F907F908F909F90AF90BF90CF90DF9047
:10020000EF90FF900F911F912F913F914F915F9130
:100210006F917F918F919F91AF91BF91CF91DF911E
:10022000EF91FF91FFBFFF91FCBFFF910895FF93F6
:10023000FCB7FF93FFB7F894FF93EF93DF93CF934F
:10024000BF93AF939F938F937F936F935F934F93DE
:100250003F932F931F930F93FF92EF92DF92CF92D2
:10026000BF92AF929F928F927F926F925F924F92C6
:100270003F922F921F920F92E091F10BF091F20BAF
:100280008DB79EB7F395918380838091EF0B90910A
:10029000F00B9EBF8DBF0F901F902F903F904F90FF
:1002A0005F906F907F908F909F90AF90BF90CF9016
:1002B000DF90EF90FF900F911F912F913F914F9101
:1002C0005F916F917F918F919F91AF91BF91CF91EE
:1002D000DF91EF91FF91FFBFFF91FCBFFF91089568
:1002E000FC01DB01AF5EBE4F1D921C9280819181AB
:1002F000892B39F4718360837383628381E090E09A
:100300000BC0A281B381AF5EBE4F6D937C937383AC
:100310006283848195810196958384830895FC018D
:1003200080819181009781F0DC01AF5EBE4F2D91FD
:100330003C911197318320831D921C922481358139
:1003400021503109358324830895CF93CFB7F89492
:1003500083E0809343026BDFCFBFCF910895FF937B
:10036000FCB7FF93FFB7F894F068FF93EF93DF9328
:10037000CF93BF93AF939F938F937F936F935F932D
:100380004F933F932F931F930F93FF92EF92DF9220
:10039000CF92BF92AF929F928F927F926F925F9215
:1003A0004F923F922F921F920F92E091F10BF0919A
:1003B000F20B8DB79EB7F395918380838091EF0BFD
:1003C0009091F00B9EBF8DBF81E08093430280919E
:1003D000EF0B9091F00B9EBF8DBF0F901F902F9051
:1003E0003F904F905F906F907F908F909F90AF90D5
:1003F000BF90CF90DF90EF90FF900F911F912F91C2
:100400003F914F915F916F917F918F919F91AF91AC
:10041000BF91CF91DF91EF91FF91FFBFFF91FCBFA3
:10042000FF910895F89481E884B9809100028630A4
:1004300028F4809100028F5F31E004C080910002B7
:10044000855030E841E845B994E62FE758E361E08C
:10045000215050406040E1F700C000009150A9F7E2
:1004600015B898E27FE728E351E0715020405040F2
:10047000E1F700C000009150A9F79817E1F035B9F5
:100480002AE06FE778E351E0615070405040E1F7B7
:1004900000C000002150A9F715B82AE06FE778E303
:1004A00051E0615070405040E1F700C00000215021
:1004B000A9F79F5FE2CF94E16FE778E321E0615015
:1004C00070402040E1F700C000009150A9F7BBCF79
:1004D0000F931F93CF93DF9380913002909131025D
:1004E000892B09F4B2C080913C02882329F080E373
:1004F00092E015DFBC0102C06CED7AE080913C0215
:10050000823079F480913F0290914002892B09F466
:100510009FC080913D0290913E02892B09F498C0C2
:1005200099C0FB01E752FF4F108280E87E968083DE
:1005300033961082809138029091390231969083DF
:1005400080913802909139023196808331961082E1
:1005500085EA91E031969083319680833196CB0184
:1005600089529F4F91838083DB01AD5FBE4F82E054
:100570008C9380913A0290913B02349691838083D0
:1005800080913C023296808380913C02823049F017
:10059000833009F447C0813009F077C08AE292E0E5
:1005A00052C08091410290914202EB01C75FDE4F41
:1005B0009983888380913F02909140028B01055F6F
:1005C0001E4FF8019183808320913D0230913E02BD
:1005D000CB01895F9E4FFC01318320834881598183
:1005E00020910C0230910D022496CA01821B930BBC
:1005F00099838883F80180819181349691838083E7
:1006000083E08C93EEE0F2E080E090E0C191D19144
:10061000CD2B59F0019688309105C1F78DE080937C
:10062000000200DF84E292E00EC0FC01EE0FFF1F2B
:10063000E25FFD4F718360834217530731F582E01B
:100640008C938EE192E04CDE20C080E090E01FC0F1
:1006500080E1E5CF20913F023091400280913D0240
:1006600090913E022817390710F08BE0D8CF2091E7
:1006700041023091420280910C0290910D022817A4
:10068000390708F04ECF8CE0CACF81E090E0DF91CF
:10069000CF911F910F910895109280008AE080936E
:1006A000810088E090E090933502809334021092AC
:1006B0002F0210922E0210922902109228021092FC
:1006C000230210922202E7E4F3E0AEE0B2E01082EF
:1006D0001D921D92CF01409697878687ED5EFE4F53
:1006E0002AE0EC3CF20799F710921D0210921C02CE
:1006F0001092DB0A1092DA0AC4E4D2E0D0933102FD
:10070000C093300289EC99E09093330280933202D7
:100710008DEB90E0909339028093380210923C0266
:10072000D7DE81EA90E0909339028093380283E02B
:1007300080933C02CDDED093F20BC093F10B81E0AD
:100740008093470384E292E0EADD80916F0082604B
:1007500080936F0080E197E29093890080938800F6
:10076000109285001092840082E086BBAA24A39494
:100770002CEDE22E2AE0F22E32E0B32E8091F10B26
:100780009091F20BFC01ED5FFE4F2081213019F4B6
:100790008C5D9A4059F58091240290912502892B15
:1007A00019F084E292E008C080911E0290911F022D
:1007B000892B41F08EE192E0B2DD9093F20B8093B1
:1007C000F10B0DC080912A0290912B02892B19F018
:1007D0008AE292E0F1CFF092F20BE092F10BE0911D
:1007E000F10BF091F20BED5FFE4FA082C7DC109190
:1007F0004302123009F48DC0C091F10BD091F20B7D
:10080000133030F4112309F4F0C0113051F0E7C077
:10081000143009F4D0C008F4AFC0153009F4E5C0B5
:10082000DEC080910C0290910D02019690930D0212
:1008300080930C02209729F49EE0892E92E0992E55
:100840003CC0FE01EA5FFE4F80818230A9F73397FA
:100850008081813089F73C968081918101979183D5
:100860008083892B49F788E038C06801F3EFCF1AFD
:10087000FEEFDF0AF60180819181019791838083E9
:10088000892BB1F4B8018EE192E02ADDF801ED5F29
:10089000FE4FB082349680819181F60191838083EE
:1008A0003296D801A55FBE4F8D919C919183808334
:1008B000FEE18F16F2E09F0641F0F40101911191E3
:1008C0004F010115110589F6F3CF80912202909115
:1008D00023028230910520F08EE080930002A2DD99
:1008E000FE01EA5FFE4F209731F02081223019F49B
:1008F000892B09F03FC08081813009F076C0FE016C
:10090000ED5FFE4F8081813009F06FC0B082BE0183
:1009100091C0DEDD909337028093360280913602DB
:1009200090913702892B09F460C06091F10B7091AE
:10093000F20BFB01EA5FFE4F8081833031F480913E
:100940003C02823009F051C05FC0823009F063C0C0
:1009500090913C02933009F044C0FB01ED5FFE4FE3
:1009600080838EE192E0BCDC809122029091230290
:100970000297D8F18FE0B1CF2AE0CC3DD207A9F1A0
:10098000FE01ED5FFE4F108233968081823021F0B0
:10099000BE0180E392E050C0EEE0F2E08081918100
:1009A0008C179D0711F411821082329682E0EE318D
:1009B000F807A1F7EDCFFE01EA5FFE4F808181309D
:1009C00031F0833041F4BE0184E292E003C0BE0105
:1009D0008AE292E085DCCD5FDE4FB88206C08AE015
:1009E0007CCF80913C02823019F010924302C6CE37
:1009F000209141023091420280910C0290910D02AF
:100A00002817390709F4B6CF80912202909123026A
:100A1000029758F361CF813041F780913C028330D7
:100A200029F040913C02423001F708C0FB01ED5F24
:100A3000FE4F10838AE292E053DCD7CF209141022F
:100A40003091420280910C0290910D0228173907D3
:100A500061F6FB01ED5FFE4F4083ECCF0F931F93D8
:100A6000CF93CFB7F8949093390280933802709364
:100A70003B0260933A0282E080933C0250933E0234
:100A800040933D0210934202009341023093400292
:100A900020933F0280934302CADB809136029091FB
:100AA0003702CFBFCF911F910F910895CF93DF935E
:100AB0001F92CDB7DEB78FB78983F89484E0809317
:100AC0004302B5DB89818FBF0F90DF91CF910895ED
:100AD000CF93CFB7F894609184007091850080E047
:100AE00090E068517C4F8F4F9F4F28EE33E040E0FD
:100AF00050E019D1E5E0E29FC001E39F900D112481
:100B00006AE070E0FDD020910C0230910D02E29F6E
:100B1000C001E39F900D1124CFBF860F971FCF9187
:100B2000089587B18FEF87B9409841984298B4DD16
:100B3000CF92DF92EF92FF920F931F93CF93DF93A9
:100B40008091150E81114EC08091160E1F928F93C9
:100B500081E092E09F938F9383EF9BE09F938F932D
:100B600034D1BC0183EF9BE079D0C5E1DCE00F908C
:100B70000F900F900F900F900F9000E010E088E022
:100B8000E82E82E0F82E93EFC92E9BE0D92E8091BB
:100B9000130C9091140C08171907ECF488819981B3
:100BA00022969F938F93FF92EF92DF92CF920DD177
:100BB000BC0183EF9BE052D08FE99FE00197F1F7F2
:100BC00000C000000F5F1F4F0F900F900F900F900D
:100BD0000F900F90DCCF81E08093150E1092140CD3
:100BE0001092130CDF91CF911F910F91FF90EF9016
:100BF000DF90CF9008952091130C3091140C2F3F6B
:100C0000310509F098F4E091130CF091140CEE0FFB
:100C1000FF1FEB5EF34F918380838091130C9091C3
:100C2000140C01969093140C8093130C08958093E8
:100C3000160E0895F8949091C00095FFFCCF809314
:100C4000C60078940895CF93DF93EC0189918823AF
:100C500011F0F0DFFBCFDF91CF910895F4DF80E05A
:100C600090E0089510927D0E10927C0E1092170E57
:100C70001092C50087E68093C40088E98093C10084
:100C80008EE08093C20008951F920F920FB60F92CC
:100C900011240BB60F925F936F937F938F939F9363
:100CA000AF93BF93EF93FF938091C00087FFFCCF7A
:100CB000E0917C0EF0917D0E8091C600E85EF14FD0
:100CC000808380917C0E90917D0E019664E670E0A9
:100CD00017D090937D0E80937C0E81E08093170E49
:100CE000FF91EF91BF91AF919F918F917F916F9104
:100CF0005F910F900BBE0F900FBE0F901F90189535
:100D000097FB072E16F4009406D077FD08D027D065
:100D100007FC05D03EF4909581959F4F08957095FE
:100D200061957F4F0895052E97FB16F400940FD020
:100D300057FD05D028D007FC02D046F408C05095D6
:100D40004095309521953F4F4F4F5F4F08959095B7
:100D50008095709561957F4F8F4F9F4F0895AA1B87
:100D6000BB1B51E107C0AA1FBB1FA617B70710F096
:100D7000A61BB70B881F991F5A95A9F780959095C8
:100D8000BC01CD010895A1E21A2EAA1BBB1BFD01D7
:100D90000DC0AA1FBB1FEE1FFF1FA217B307E4075A
:100DA000F50720F0A21BB30BE40BF50B661F771FB2
:100DB000881F991F1A9469F7609570958095909592
:100DC0009B01AC01BD01CF0108950F931F93CF93F9
:100DD000DF93CDB7DEB72E970FB6F894DEBF0FBE08
:100DE000CDBF0E891F8986E08C831A8309838FEF1C
:100DF0009FE79E838D83AE01465E5F4F688D798D40
:100E0000CE01019610D0EF81F885E00FF11F10821E
:100E10002E960FB6F894DEBF0FBECDBFDF91CF91F7
:100E20001F910F9108952F923F924F925F926F9270
:100E30007F928F929F92AF92BF92CF92DF92EF926A
:100E4000FF920F931F93CF93DF93CDB7DEB72C970D
:100E50000FB6F894DEBF0FBECDBF7C016B018A01D7
:100E6000FC0117821682838181FFB0C1CE010196F9
:100E70004C01F7019381F60193FD859193FF8191D8
:100E80006F01882309F49EC1853239F493FD859161
:100E900093FF81916F01853221F4B70190E0C7D1B2
:100EA000E8CF512C312C20E02032A0F48B3269F0B5
:100EB00030F4803259F0833269F420612CC08D32D5
:100EC00039F0803339F4216026C02260246023C0C9
:100ED000286021C027FD27C030ED380F3A3078F464
:100EE00026FF06C0FAE05F9E300D1124532E13C07A
:100EF0008AE0389E300D1124332E20620CC08E32D1
:100F000021F426FD5FC1206406C08C3611F42068F0
:100F100002C0883641F4F60193FD859193FF8191DB
:100F20006F018111C1CF982F9F7D9554933028F484
:100F30000C5F1F4FFFE3F9830DC0833631F0833719
:100F400071F0833509F057C021C0F8018081898391
:100F50000E5F1F4F44244394512C540114C0380198
:100F6000F2E06F0E711CF801A080B18026FF03C073
:100F7000652D70E002C06FEF7FEFC5012C874CD16B
:100F80002C0183012C852F77222E16C03801F2E028
:100F90006F0E711CF801A080B18026FF03C0652D83
:100FA00070E002C06FEF7FEFC5012C872AD12C01C2
:100FB0002C852068222E830123FC19C0832D90E00C
:100FC00048165906A0F4B70180E290E030D13A9477
:100FD000F5CFF50127FC859127FE81915F01B701CF
:100FE00090E025D131103A94F1E04F1A51084114A4
:100FF000510479F7DEC0843611F0893631F5F801F5
:1010000027FF07C060817181828193810C5F1F4F30
:1010100008C060817181882777FD8095982F0E5FC9
:101020001F4F2F76B22E97FF09C09095809570952F
:1010300061957F4F8F4F9F4F2068B22E2AE030E09E
:10104000A40127D1A82EA81843C0853729F42F7EE4
:10105000B22E2AE030E025C0F22FF97FBF2E8F3666
:10106000C1F018F4883579F0ADC0803719F08837B1
:1010700021F0A8C02F2F2061B22EB4FE0DC08B2D01
:101080008460B82E09C024FF0AC09F2F9660B92E35
:1010900006C028E030E005C020E130E002C020E1D9
:1010A00032E0F801B7FE07C06081718182819381CF
:1010B0000C5F1F4F06C06081718180E090E00E5F81
:1010C0001F4FA401E6D0A82EA818FB2DFF77BF2E36
:1010D000B6FE0BC02B2D2E7FA51450F4B4FE0AC013
:1010E000B2FC08C02B2D2E7E05C07A2C2B2D03C000
:1010F0007A2C01C0752C24FF0DC0FE01EA0DF11DF4
:101100008081803311F4297E09C022FF06C07394C8
:10111000739404C0822F867809F0739423FD12C063
:1011200020FF06C05A2C731418F4530C5718732C54
:10113000731460F4B70180E290E02C8778D0739448
:101140002C85F6CF731410F4371801C0312C24FF0E
:1011500011C0B70180E390E02C8769D02C8522FF75
:1011600016C021FF03C088E590E002C088E790E048
:10117000B7010CC0822F867851F021FD02C080E2B9
:1011800001C08BE227FD8DE2B70190E050D0A5149D
:1011900030F4B70180E390E04AD05A94F8CFAA9493
:1011A000F401EA0DF11D8081B70190E040D0A1105B
:1011B000F6CF332009F45DCEB70180E290E037D05E
:1011C0003A94F7CFF7018681978102C08FEF9FEFA6
:1011D0002C960FB6F894DEBF0FBECDBFDF91CF9136
:1011E0001F910F91FF90EF90DF90CF90BF90AF9045
:1011F0009F908F907F906F905F904F903F902F9037
:101200000895FC010590615070400110D8F7809559
:1012100090958E0F9F1F0895FC01615070400190C2
:101220000110D8F7809590958E0F9F1F08950F930A
:101230001F93CF93DF93182F092FEB018B8181FD33
:1012400003C08FEF9FEF20C082FF10C04E815F81EF
:101250002C813D81421753077CF4E881F9819F017D
:101260002F5F3F4F39832883108306C0E885F985B7
:10127000812F1995892B29F72E813F812F5F3F4FB1
:101280003F832E83812F902FDF91CF911F910F915C
:101290000895FA01AA27283051F1203181F1E8940C
:1012A0006F936E7F6E5F7F4F8F4F9F4FAF4FB1E059
:1012B0003ED0B4E03CD0670F781F891F9A1FA11D54
:1012C000680F791F8A1F911DA11D6A0F711D811D55
:1012D000911DA11D20D009F468943F912AE0269F1A
:1012E00011243019305D3193DEF6CF010895462F79
:1012F0004770405D4193B3E00FD0C9F7F6CF462F5A
:101300004F70405D4A3318F0495D31FD40524193C2
:1013100002D0A9F7EACFB4E0A6959795879577957F
:101320006795BA95C9F700976105710508959B0106
:10133000AC010A2E06945795479537952795BA958F
:10134000C9F7620F731F841F951FA01D0895F8949D
:02135000FFCFCD
:0C1352000654253033643B0025753B0039
:00000001FF
