S01700004763634170706C69636174696F6E332E7372656359
S11300007BC0000098C0000096C0000094C00000AF
S113001092C0000090C000008EC000008CC00000A0
S11300208AC0000088C0000086C0000084C00000B0
S113003082C0000080C000007EC000007CC00000C0
S11300407AC00000ACC1000076C0000074C000009B
S113005072C0000070C000006EC000006CC00000E0
S11300606AC000003FC6000066C0000064C0000013
S113007062C0000060C000005EC000005CC0000000
S11300805AC0000058C0000056C0000054C0000010
S113009052C0000050C000004EC000004CC0000020
S11300A04AC0000048C0000046C0000044C0000030
S11300B042C0000040C000003EC000003CC0000040
S11300C03AC0000038C0000036C0000034C0000050
S11300D032C0000030C000002EC000002CC0000060
S11300E02AC00000CF053304B104E9040C05CF0590
S11300F0240538055805AC0511241FBECFEFD1E205
S1130100DEBFCDBF00E00CBF12E0A0E0B2E0EAEB3E
S1130110FDE000E00BBF02C007900D92A230B107D2
S1130120D9F72CE0A2E0B2E001C01D92A539B207D4
S1130130E1F7BFD540C664CFCF93DF931F921F92E0
S1130140CDB7DEB796D589839A8381D562E370E013
S113015089819A819CD5F6CF0F931F93B1D500E086
S113016010E022E030E045E050E06AE070E08CE925
S113017090E045D5EDD080E090E01F910F91089577
S1130180FFCFFF93FCB7FF93FFB7F894FF93EF9370
S1130190DF93CF93BF93AF939F938F937F936F938B
S11301A05F934F933F932F931F930F93FF92EF927D
S11301B0DF92CF92BF92AF929F928F927F926F9273
S11301C05F924F923F922F921F920F928DB79EB7DC
S11301D090932B0C80932A0CE0912C0CF0912D0C15
S11301E0F395808191819EBF8DBF0F901F902F90BA
S11301F03F904F905F906F907F908F909F90AF90C3
S1130200BF90CF90DF90EF90FF900F911F912F91AF
S11302103F914F915F916F917F918F919F91AF919A
S1130220BF91CF91DF91EF91FF91FFBFFF91FCBF91
S1130230FF910895FF93FCB7FF93FFB7F894FF93E2
S1130240EF93DF93CF93BF93AF939F938F937F935A
S11302506F935F934F933F932F931F930F93FF924B
S1130260EF92DF92CF92BF92AF929F928F927F9242
S11302706F925F924F923F922F921F920F92E09152
S11302802C0CF0912D0C8DB79EB7F3959183808340
S113029080912A0C90912B0C9EBF8DBF0F901F90C4
S11302A02F903F904F905F906F907F908F909F9092
S11302B0AF90BF90CF90DF90EF90FF900F911F9180
S11302C02F913F914F915F916F917F918F919F916A
S11302D0AF91BF91CF91DF91EF91FF91FFBFFF915C
S11302E0FCBFFF910895FC01DB01AF5EBE4F1D9280
S11302F01C9280819181892B39F47183608373838B
S1130300628381E090E00BC0A281B381AF5EBE4FF7
S11303106D937C9373836283848195810196958325
S113032084830895FC0180819181009781F0DC0130
S1130330AF5EBE4F2D913C911197318320831D9266
S11303401C922481358121503109358324830895F9
S1130350CF93CFB7F89483E080937E026BDFCFBF57
S1130360CF910895FC0180819181DB01AF5EBE4F86
S1130370009759F4718360837383628381E090E012
S1130380958384831D921C9208958D939C9371830D
S11303906083848195810196958384830895FF9376
S11303A0FCB7FF93FFB7F894F068FF93EF93DF93E4
S11303B0CF93BF93AF939F938F937F936F935F93E9
S11303C04F933F932F931F930F93FF92EF92DF92DC
S11303D0CF92BF92AF929F928F927F926F925F92D1
S11303E04F923F922F921F920F92E0912C0CF0911A
S11303F02D0C8DB79EB7F3959183808380912A0C41
S113040090912B0C9EBF8DBF81E080937E028091E2
S11304102A0C90912B0C9EBF8DBF0F901F902F9094
S11304203F904F905F906F907F908F909F90AF9090
S1130430BF90CF90DF90EF90FF900F911F912F917D
S11304403F914F915F916F917F918F919F91AF9168
S1130450BF91CF91DF91EF91FF91FFBFFF91FCBF5F
S1130460FF910895F89481E884B980910002863060
S113047028F4809100028F5F31E004C08091000273
S1130480855030E841E845B994E62FE758E361E048
S1130490215050406040E1F700C000009150A9F79E
S11304A015B898E27FE728E351E0715020405040AE
S11304B0E1F700C000009150A9F79817E1F035B9B1
S11304C02AE06FE778E351E0615070405040E1F773
S11304D000C000002150A9F715B82AE06FE778E3BF
S11304E051E0615070405040E1F700C000002150DD
S11304F0A9F79F5FE2CF94E16FE778E321E06150D1
S113050070402040E1F700C000009150A9F7BBCF34
S11305100F931F93CF93DF938091670290916802AA
S1130520892B09F4CAC080917702882329F087E6D1
S113053092E0F8DEBC0102C067E17BE080917702C3
S11305408230D9F480917A0290917B02892B09F44C
S1130550B7C08091780290917902892B09F4B0C0D8
S113056020917A0230917B028091780290917902F5
S11305702817390708F0A4C0A7C0FB01E752FF4FB2
S1130580108280E87E968083339610828091730275
S113059090917402319690838091730290917402C9
S11305A0319680833196108288EA91E03196908367
S11305B0319680833196CB0189529F4F91838083FA
S11305C0DB01AD5FBE4F82E08C9380917502909108
S11305D07602349691838083809177023296808369
S11305E080917702823049F0833009F44AC0813027
S11305F009F078C081E692E05EC020917C023091DF
S11306007D02CB01875F9E4FFC01318320832091C3
S11306107A0230917B028B01055F1E4FF801318312
S113062020832091780230917902EB01C95FDE4F7B
S113063039832883FC0120813181809102029091C9
S11306400302AB01435F5E4FF901E81BF90BCF01D5
S1130650FA0191838083F80180819181349691839A
S1130660808383E08C93E4E0F2E080E090E0019109
S11306701191012B49F0019688309105C1F78DE065
S113068020C08BE592E017C0FC01EE0FFF1FEC5F6A
S1130690FD4F7183608380910202909103022817B9
S11306A0390701F582E08C9388819981FA0191835D
S11306B0808385E592E017DE15C080E090E014C0E9
S11306C08BE080930002CEDE20917C0230917D028B
S11306D080910202909103022817390708F04DCF48
S11306E08CE0EFCF81E090E0DF91CF911F910F91EB
S11306F00895109280008AE08093810088E090E061
S113070090936C0280936B021092660210926502C1
S11307101092600210925F0210925A0210925902D3
S113072010921402E2E8F3E0A4E0B2E010821D9219
S11307301D92CF01409697878687ED5EFE4F2BE092
S1130740E730F20799F710921302109212021092F6
S1130750160B1092150BCFE7D2E0D0936802C0932A
S1130760670284E09AE090936A028093690280ECC5
S113077090E0909374028093730210927702C8DE23
S11307808CEA90E0909374028093730283E08093E8
S11307907702BEDED0932D0CC0932C0C81E08093A5
S11307A082038BE592E0BEDD80916F0082608093CE
S11307B06F0080E197E29093890080938800109203
S11307C085001092840082E086BBCC24C39427E188
S11307D0E22E2BE0F22E32E0D32E43E0B42E8091B1
S11307E02C0C90912D0CFC01ED5FFE4F20812130EB
S11307F019F487519B4059F580915B0290915C02FA
S1130800892B19F08BE592E008C0809155029091F4
S11308105602892B41F085E592E084DD90932D0CFE
S113082080932C0C0DC08091610290916202892BFF
S113083019F081E692E0F1CFF0922D0CE0922C0CAD
S1130840E0912C0CF0912D0CED5FFE4FC08299DCF1
S113085080917E0290E08A30910508F094C1FC01F9
S1130860EE58FF4FA2C280910202909103020196BA
S11308709093030280930202C0912C0CD0912D0C12
S1130880209729F494E0692E92E0792E3CC0FE0171
S1130890EA5FFE4F80818230A9F7339780818130EF
S11308A089F73C9680819181019791838083892B7C
S11308B049F788E038C04801F3EF8F1AFEEF9F0A2A
S11308C0F40180819181019791838083892BB1F414
S11308D0B80185E592E007DDF801ED5FFE4FD082B7
S11308E0349680819181F401918380833296D8017A
S11308F0A55FBE4F8D919C9191838083F4E16F1627
S1130900F2E07F0641F0F301019111913F010115DD
S1130910110589F6F3CF8091590290915A028230E1
S1130920910520F08EE0809300029CDDFE01EA5FD9
S1130930FE4F209731F02081223019F4892B09F0E1
S113094044C08081813009F02AC1FE01ED5FFE4F71
S11309508081813009F023C1D082BE0181E692E01A
S1130960A5C0D6DD909372028093710280917102CA
S113097090917202892B59F160912C0C70912D0C7D
S1130980FB01EA5FFE4F8081833031F4809177026E
S1130990823009F004C106C1823009F0F6C090919A
S11309A07702933009F405C180917702823009F00F
S11309B0F6C020917C0230917D02809102029091D8
S11309C003022817390709F0EDC08FE0ACCF87E0A8
S11309D0AACF60912C0C70912D0C2BE0673172071B
S11309E009F4DDC0FB01ED5FFE4F10823396808178
S11309F0823019F087E692E059C0E4E0F2E08081A9
S1130A0091818617970711F411821082329682E041
S1130A10E431F807A1F7EECFC0912C0CD0912D0C46
S1130A20FE01EA5FFE4F8081813031F0833041F472
S1130A30BE018BE592E003C0BE0181E692E053DC87
S1130A40CD5FDE4FD882ABC01092700210926F025D
S1130A5020911402283008F0A2C0822F90E0019661
S1130A609093700280936F022F5F2093140297C0BB
S1130A7080916F02815090911402891708F074C01C
S1130A8060912C0C70912D0CFB01EA5FFE4F90815C
S1130A90923011F481E147CFFB01ED5FFE4FB0824C
S1130AA0E8E08E9FC00111248B5E9D4F1CDC77C053
S1130AB0E0916F02E15080911402E81708F054C0ED
S1130AC080916D0290916E02892B09F45CC0809133
S1130AD06D0290916E0228E0E29FF0011124EB5E1A
S1130AE0FD4F97838683912CEF018F010C5F1F4F7D
S1130AF0F80180819181892BB9F0CE0113DCBC010E
S1130B00FC01ED5FFE4FD08233968081813041F04D
S1130B108330C9F58BE592E0E6DB99249394E8CF22
S1130B2081E692E0E0DBE4CF9920C9F160912C0CDE
S1130B3070912D0CFB01EA5FFE4F8081813011F42E
S1130B40339748C0823059F5FB01ED5FFE4F808337
S1130B5085E592E007DC26C0E0916F02E15021F0C8
S1130B6080911402E81710F080E1DDCE28E0E29FC6
S1130B70F0011124EB5EFD4F8681978190936E0204
S1130B8080936D020CC08AE0CECE813041F4809116
S1130B9077028330E1F040917702423001F1109204
S1130BA07E021DCE8091590290915A020297B8F3A9
S1130BB0B9CEFB01ED5FFE4F808380915902909185
S1130BC05A02892B09F001CF85E592E06FCFFB0132
S1130BD0ED5FFE4FD08281E692E0C4DBE0CF20914E
S1130BE07C0230917D0280910202909103022817C9
S1130BF03907A9F6FB01ED5FFE4F4083ECCF0F935D
S1130C001F93CF93CFB7F894909374028093730299
S1130C10709376026093750282E08093770250931A
S1130C2079024093780210937D0200937C02309302
S1130C307B0220937A0280937E02FCDA8091710217
S1130C4090917202CFBFCF911F910F910895CF93CE
S1130C50DF931F92CDB7DEB78FB78983F89484E012
S1130C6080937E02E7DA89818FBF0F90DF91CF9165
S1130C700895CF93CFB7F89486E080937E02DADAB2
S1130C8080916F0290917002CFBFCF910895CF935E
S1130C90CFB7F89428E020937E029093700280935B
S1130CA06F0270936E0260936D02C4DACFBFCF916E
S1130CB0089587B18FEF87B940984198429819DD1C
S1130CC01092940C1092930C10922E0C1092C5005A
S1130CD087E68093C40088E98093C1008EE0809306
S1130CE0C20008951F920F920FB60F9211240BB6F3
S1130CF00F925F936F937F938F939F93AF93BF9361
S1130D00EF93FF938091C00087FFFCCFE091930C99
S1130D10F091940C8091C600E15DF34F8083809143
S1130D20930C9091940C019664E670E02BD0909310
S1130D30940C8093930C81E080932E0CFF91EF919F
S1130D40BF91AF919F918F917F916F915F910F9020
S1130D500BBE0F900FBE0F901F901895AA1BBB1BC4
S1130D6051E107C0AA1FBB1FA617B70710F0A61BA7
S1130D70B70B881F991F5A95A9F780959095BC01C8
S1130D80CD01089597FB072E16F4009406D077FD45
S1130D9008D0E4DF07FC05D03EF4909581959F4F81
S1130DA00895709561957F4F0895EE0FFF1F05908C
S10D0DB0F491E02D1994F894FFCF9C
S1050DBA06002D
S9030000FC
