:100000007AC0000097C0000095C0000093C00000B7
:1000100091C0000071C100008EC000008BC00000C4
:1000200089C0000087C0000085C0000083C00000B8
:1000300081C000007FC000007DC000007BC00000C8
:1000400079C0000004C4000075C0000073C0000047
:1000500071C000006FC000006DC000006BC00000E8
:1000600069C0000067C0000065C0000063C00000F8
:1000700061C000005FC000005DC000005BC0000008
:1000800059C0000057C0000055C0000053C0000018
:100090000C9466084FC000004DC000004BC000002B
:1000A00049C0000047C0000045C0000043C0000038
:1000B00041C000003FC000003DC000003BC0000048
:1000C00039C0000037C0000035C0000033C0000058
:1000D00031C000002FC000002DC000002BC0000068
:1000E00029C000005C08D10609075D0783075C088A
:1000F000A907BF07E80711241FBECFEFD1E2DEBF7B
:10010000CDBF00E00CBF12E0A0E0B2E0E8E2F1E118
:1001100000E00BBF02C007900D92A031B107D9F7E4
:100120002CE0A0E1B2E001C01D92A635B207E1F7D4
:1001300090D5F8C765CF1F920F920FB60F9211247A
:100140000BB60F928F939F93EF93FF9380911202C0
:10015000811117C081E08093120210921102109257
:100160001002B19A80918400909185008052914D47
:100170009093890080938800EFE6F0E080818260B0
:100180008083FF91EF919F918F910F900BBE0F9005
:100190000FBE0F901F901895CF93DF93C2E0D1E070
:1001A00088818F7B88838FEF4DD19881906498836D
:1001B000DF91CF910895EF92FF920F931F93CF930A
:1001C000DF938B01E42EC2E0D1E098819F7B98837E
:1001D0008F71806237D1F82E6E2DC80124D18881AD
:1001E000806488838F2DDF91CF911F910F91FF90B5
:1001F000EF90089580910802882329F045E063E09C
:1002000072E08AE0D8CF0895FF920F931F93CF93A7
:10021000DF938B01EA01F22EE2E0F1E090819F7B17
:10022000908310D1FF2051F0209721F46F2DC80149
:10023000FAD004C04F2DBE01C801E2D0E2E0F1E0E7
:10024000808180648083DF91CF911F910F91FF9017
:100250000895EF92FF920F931F93CF93DF93062F92
:10026000F72E142F442349F0362FE62FF72F2FEFC8
:1002700021939E2F931B9117D8F3C2E0D1E0988170
:100280009F7B98838F71DED0E82E412F602F7F2DCA
:1002900080E090E0B5D08881806488838E2DDF91E6
:1002A000CF911F910F91FF90EF900895CF93DF931F
:1002B0001F92CDB7DEB741E0BE016F5F7F4F80E098
:1002C000C8DF898180FD14C08160898341E0BE015F
:1002D0006F5F7F4F80E06FDF83E091E00197F1F780
:1002E00000C0000083E091E00197F1F700C000003A
:1002F0000F90DF91CF9108951F920F920FB60F923A
:1003000011240BB60F922F933F934F935F936F93EC
:100310007F938F939F93AF93BF93EF93FF93CF936D
:10032000DF931F92CDB7DEB7E2E0F1E080818F7EF0
:10033000808380818F7D80832FDF898386FF03C048
:100340008E70869585D0898185FF1BC0109213021F
:1003500051DFACDF8091010290910202880F991F5A
:100360009093020280930102809101029091020217
:100370008160909302028093010281E080930002E9
:1003800019C084FF17C020E040E050E060E070E05A
:1003900081EE3ADF109213022DDF88DF8091010297
:1003A00090910202880F991F90930202809301029C
:1003B0001092000280E7898341E0BE016F5F7F4FAA
:1003C00087E0F9DEE2E0F1E0808180618083808176
:1003D000806280830F90DF91CF91FF91EF91BF9169
:1003E000AF919F918F917F916F915F914F913F91CD
:1003F0002F910F900BBE0F900FBE0F901F9018956E
:10040000442381F0282FA62FB72FE82FF92F8191B1
:100410008EBD0DB407FEFDCF8EB58D938E2F821B42
:100420008417A8F30895662361F0282FE82FF92F89
:1004300081918EBD0DB407FEFDCF8E2F821B8617D6
:10044000B8F308958EBD0DB407FEFDCF8EB50895A7
:100450000895409A40980895FFCFFF93FCB7FF930B
:10046000FFB7F894FF93EF93DF93CF93BF93AF93CE
:100470009F938F937F936F935F934F933F932F93AC
:100480001F930F93FF92EF92DF92CF92BF92AF92A2
:100490009F928F927F926F925F924F923F922F9294
:1004A0001F920F928DB79EB790932E0C80932D0CB8
:1004B000E091330CF091340CF395808191819EBFD3
:1004C0008DBF0F901F902F903F904F905F906F9037
:1004D0007F908F909F90AF90BF90CF90DF90EF90E4
:1004E000FF900F911F912F913F914F915F916F91CD
:1004F0007F918F919F91AF91BF91CF91DF91EF91BC
:10050000FF91FFBFFF91FCBFFF910895FF93FCB7E0
:10051000FF93FFB7F894FF93EF93DF93CF93BF93CD
:10052000AF939F938F937F936F935F934F933F937B
:100530002F931F930F93FF92EF92DF92CF92BF9270
:10054000AF929F928F927F926F925F924F923F9263
:100550002F921F920F92E091330CF091340C8DB7D3
:100560009EB7F3959183808380912D0C90912E0CF2
:100570009EBF8DBF0F901F902F903F904F905F9028
:100580006F907F908F909F90AF90BF90CF90DF90B3
:10059000EF90FF900F911F912F913F914F915F919D
:1005A0006F917F918F919F91AF91BF91CF91DF918B
:1005B000EF91FF91FFBFFF91FCBFFF9108950F9353
:1005C0001F93CF93DF93FC01A081B1811097C1F0FD
:1005D000FB01068117812091160230911702E091EC
:1005E0001602F0911702A801421B530B16962D918B
:1005F0003C9117972E1B3F0B4217530778F524C0E9
:100600007183608373836283FB01118610863AC015
:100610002091160230911702C0911602D091170254
:10062000A801421B530B268137812C1B3D0B42171F
:10063000530710F0DF0112C0109729F019967C9330
:100640006E93189705C0DF01FC0171836083FD0183
:10065000DB011996FC93EE93189714C01896ED9150
:10066000FC9119973097A1F6DC011296ED91FC915F
:1006700013977187608713967C936E931297FB0193
:1006800011861086DF91CF911F910F910895FC0183
:1006900080819181892B29F47183608373836283C4
:1006A0000895A281B381A65FBE4F6D937C9373833F
:1006B00062830895FC0180819181009789F02281F5
:1006C00033818217930729F41382128211821082D8
:1006D0000895DC01A65FBE4F2D913C9131832083AC
:1006E00008958091790290917A02892B09F49CC037
:1006F00080919702813039F4809175029091760251
:10070000892B09F494C0809197028F3F21F089E7EB
:1007100092E0D0DF02C081E29BE0FC01E752FF4F94
:10072000108220E87E96208333961082E3E9F2E07F
:1007300020813181DC01A550BF4F3C932081318164
:10074000FC01E450FF4F2083319610822DE134E00C
:10075000319630833196208331969C0129523F4F48
:100760003183208322E035962083209195023091B9
:100770009602319631832083E7E9F2E020811796D3
:100780002C932081213031F0223009F446C0211110
:1007900051C03CC0E0917502F09176023097B1F003
:1007A0002091770230917802E217F30749F4109212
:1007B000780210927702109276021092750206C0AB
:1007C00020853185309376022093750220918F0227
:1007D000309190023783268320918B0230918C02D6
:1007E0003383228320918D0230918E0235832483BE
:1007F00091838083DC01AD5FBE4FED93FC93BF011D
:100800008DE692E0DCDE80E090E00895BC0189E6B0
:1008100092E03DDF80E090E00895BC0181E792E046
:1008200036DF80E090E0089581E090E0089582E076
:1008300090E0089580E090E00895CF93CFB7F894CA
:1008400083E08093980262DECFBFCF910895FF933B
:10085000FCB7FF93FFB7F894F068FF93EF93DF9333
:10086000CF93BF93AF939F938F937F936F935F9338
:100870004F933F932F931F930F93FF92EF92DF922B
:10088000CF92BF92AF929F928F927F926F925F9220
:100890004F923F922F921F920F92E091330CF09162
:1008A000340C8DB79EB7F3959183808380912D0C86
:1008B00090912E0C9EBF8DBF81E080939802E8E856
:1008C000F0E080819181805F984D91838083809159
:1008D0002D0C90912E0C9EBF8DBF0F901F902F90CE
:1008E0003F904F905F906F907F908F909F90AF90D0
:1008F000BF90CF90DF90EF90FF900F911F912F91BD
:100900003F914F915F916F917F918F919F91AF91A7
:10091000BF91CF91DF91EF91FF91FFBFFF91FCBF9E
:10092000FF910895CF92DF92EF92FF920F931F9362
:10093000CF93DF93E1E8F0E0808182608083E6EC92
:10094000F3E026E23CE01082CF0107969683858390
:10095000DF0112971D921C92E45FFE4FE217F3072E
:1009600091F710922C0C10922B0C1092200B1092DD
:100970001F0B1092260C1092250C1092240CE9E902
:10098000F2E027EB32E0178216821582148213827E
:10099000128211821082CF010A9691878087821776
:1009A000930711F0FC01EFCFE7EBF2E01182108228
:1009B0001092C0021092BF021092BE021092BD02AD
:1009C0001092BC021092BB021092BA021092B902AD
:1009D0000F2EF1ECCF2EF2E0DF2EF02DD0927A0226
:1009E000C092790285E19AE090937C0280937B0229
:1009F00089E992E09093760280937502F0937802F1
:100A0000E093770210926E0210926D0210927002C3
:100A100010926F0210927202109271021092740280
:100A20001092730210926A021092690210926C0284
:100A300010926B020F2EF3E9EF2EF2E0FF2EF02D55
:100A40008CE292E0F7019183808307E912E08FEF57
:100A5000F8018083C5E9D2E01982188242DE89E27A
:100A600092E0F70191838083F80110821982188245
:100A700038DED092340CC092330C81E08093C603F0
:100A800089E692E017DEEFE6F0E080818260808305
:100A90008091840090918500805F984D90938900AB
:100AA0008093880082E086BBDF91CF911F910F91E8
:100AB000FF90EF90DF90CF900895F89480E68093B8
:100AC000010180910E02811105C030910E023F5F3D
:100AD00040E404C030910E02315040E2E2E0F1E027
:100AE00070E664E62AE054E17083862F9FE7A8E36E
:100AF000B1E09150A040B040E1F700C0000081504B
:100B0000A9F7108288E2CFE798E3A1E0C1509040B6
:100B1000A040E1F700C000008150A9F7332359F14C
:100B200090E04083822FBFE7C8E3A1E0B150C0400E
:100B3000A040E1F700C000008150A9F71082822F89
:100B4000BFE7C8E3A1E0B150C040A040E1F700C05A
:100B500000008150A9F79F5F9313E3CF0CC0BFE75C
:100B6000C8E391E0B150C0409040E1F700C0000000
:100B70008150A9F7B9CF852FF2CFE0916D02F091A6
:100B80006E02309719F180916F0290917002E81710
:100B9000F90779F0A085B1852681378116968D9168
:100BA0009C9117972817390721F486E080930E024D
:100BB00084DF209116023091170281E090E0468197
:100BC00057814217530721F080E0089580E090E0BC
:100BD00008958091870290918802019771F1809128
:100BE000690290916A02892B49F0E091330CF091EF
:100BF000340CEE5FFE4F8081811122C0BEDF892B55
:100C000049F0E091330CF091340CEE5FFE4F80819F
:100C10008230CCF48091710290917202892BB1F0F4
:100C2000E091330CF091340CEE5FFE4F81E090E0E8
:100C3000208123306CF480E0089580E090E00895F6
:100C400081E090E0089581E090E0089580E090E0F8
:100C5000089587B18FEF87B9409A64DE40988091FC
:100C6000330C9091340C009721F488E080930E02AD
:100C700024DFC9E6D2E0772473940F2EF1E7EF2E3C
:100C8000F2E0FF2EF02D0F2EF1E24F2EFBE05F2E53
:100C9000F02D0F2EFDE6AF2EF2E0BF2EF02D0F2E21
:100CA000FFE68F2EF2E09F2EF02D6894662461F807
:100CB0000F2EF3E72F2EF2E03F2EF02D0F2EF4E84B
:100CC000CF2ED12CF02DFC01EB5FFE4F2081213087
:100CD00059F481529B4009F054C080918702909151
:100CE0008802892B09F04DC088819981892B39F0C0
:100CF000CE01E0DC9093340C8093330C3BC03DDF9D
:100D0000892B41F1D501ED91FC91309791F0D401FF
:100D10008D919C911197E817F90731F41D921C925F
:100D2000D5011D921C9205C080859185D5018D93BA
:100D30009C93F093320CE093310C808191819093DD
:100D4000340C8093330C848195819093300C809384
:100D50002F0C10C0F70180819181892B39F0C701D8
:100D6000A9DC9093340C8093330C04C05092340C63
:100D70004092330CE091330CF091340CEB5FFE4F5A
:100D80007082109288021092870267DB809198022D
:100D900090E08930910508F08BC1FC01EE58FF4FBF
:100DA000BBC1809116029091170201969093170291
:100DB00080931602D6018D919C9190931502809399
:100DC00014026091330C7091340CFB01EE5FFE4F06
:100DD0008081813081F480912F0C9091300C0197AB
:100DE0009093300C80932F0C892B09F065C185E01E
:100DF00080930E0262DE823009F05EC1FB01EB5F80
:100E0000FE4F8081813009F057C16082C7013FDC0D
:100E100053C167DC9093860280938502809185029E
:100E200090918602892BA1F5D4DE892B89F18091DE
:100E3000330C9091340CFC01EB5FFE4F60823397D2
:100E400020812230D1F4F701208131812115310533
:100E500059F4D1018D939C9391838083FC01E65FCB
:100E6000FE4F1182108228C1FC01E65FFE4F3183E4
:100E70002083F701918380831FC1213009F01CC1B9
:100E8000FC01ED5FFE4F60817181C50198DB14C1EB
:100E90008091850290918602019721F482E08093EF
:100EA0000E020BDE8091850290918602029709F076
:100EB00003C183E080930E0200DE0091330C109199
:100EC000340CFBE001321F0709F4F6C0F801EB5FB8
:100ED000FE4F108233978081813081F431960190EA
:100EE000F081E02D309751F011821082F801ED5F12
:100EF000FE4F6081718185E792E061DBB80189E78F
:100F000092E0C5DBD9C06091330C7091340CFB01C9
:100F1000EB5FFE4F608233978081813039F0823001
:100F2000A9F08111C9C0CE01B2DBC6C0E091310C7D
:100F3000F091320C2681378182819381820F931F39
:100F400097838683BF01C5013ADBB6C0C7019FDB2B
:100F5000B3C0209118022A3070F438E0239FC001FA
:100F60001124875E9D4F90938402809383022F5FAC
:100F700020931802A1C089E080930E029EDD80912B
:100F8000810290918202009721F48AE080930E0200
:100F900094DD0091330C1091340CF801EE5FFE4F9C
:100FA0002081213021F48BE080930E0286DDF80150
:100FB000E85FFE4F20917F023091800231832083D1
:100FC000B80165DBF801EB5FFE4F83E0808374C0FE
:100FD00000918102109182020115110571F58AE0DC
:100FE00080930E026ADDC80165DBFC01E85FFE4FFD
:100FF0000190F081E02D20917D0230917E023183BD
:101000002083FC01EB5FFE4F60823397208121300B
:1010100041F0223051F021110CC0BC01CE0137DB70
:101020000CC08CE080930E0248DDBC01C7012FDBB1
:1010300004C08DE080930E0240DDD8018D919C911B
:10104000892B89F6C6DD892BB9F16091330C70913B
:10105000340CFB01EB5FFE4F60823397808181305F
:1010600039F0823061F0811127C0CE0110DB24C03D
:101070006091310C7091320CC501A1DA1DC0F701ED
:1010800080819181009759F4D1016D937C93718394
:101090006083FB01E65FFE4F118210820DC0FB01F1
:1010A000E65FFE4F91838083F7017183608304C004
:1010B00082E080930E0201DD109298028091330C41
:1010C0009091340C009709F0FECDCFCD1F920F9276
:1010D0000FB60F9211240BB60F928F939F93EF933D
:1010E000FF93E091350CF0E08091CE00EA5CF34F85
:1010F00080838091350C90E001968F719078809379
:10110000350CFF91EF919F918F910F900BBE0F9037
:101110000FBE0F901F901895EE0FFF1F0590F491D2
:08112000E02D1994F894FFCFB3
:1011280001FF00E7E7E7E7E72020000000000100F3
:00000001FF
